:020000040000FA
:080000000020040000000000D4
:020000040000FA
:04000800C42200000E
:020000040000FA
:04000C00C42200000A
:020000040000FA
:04001000C422000006
:020000040000FA
:04001400C422000002
:020000040000FA
:04001800C4220000FE
:020000040000FA
:04001C00C4220000FA
:020000040000FA
:04002000C4220000F6
:020000040000FA
:04002400C4220000F2
:020000040000FA
:04002800C4220000EE
:020000040000FA
:04002C00C4220000EA
:020000040000FA
:04003000C4220000E6
:020000040000FA
:04003400C4220000E2
:020000040000FA
:04003800C4220000DE
:020000040000FA
:04003C00C4220000DA
:020000040000FA
:04004000C4220000D6
:020000040000FA
:04004400C4220000D2
:020000040000FA
:04004800C4220000CE
:020000040000FA
:04004C00C4220000CA
:020000040000FA
:04005000C4220000C6
:020000040000FA
:04005400C4220000C2
:020000040000FA
:04005800C4220000BE
:020000040000FA
:04005C00C4220000BA
:020000040000FA
:04006000C4220000B6
:020000040000FA
:04006400C4220000B2
:020000040000FA
:04006800C4220000AE
:020000040000FA
:04006C00C4220000AA
:020000040000FA
:04007000C4220000A6
:020000040000FA
:04007400C4220000A2
:020000040000FA
:04007800C42200009E
:020000040000FA
:04007C00C42200009A
:020000040000FA
:04008000C422000096
:020000040000FA
:04008400C422000092
:020000040000FA
:04008800C42200008E
:020000040000FA
:04008C00C42200008A
:020000040000FA
:04009000C422000086
:020000040000FA
:04009400C422000082
:020000040000FA
:04009800C42200007E
:020000040000FA
:04009C00C42200007A
:020000040000FA
:0400A000C422000076
:020000040000FA
:0400A400C422000072
:020000040000FA
:0400A800C42200006E
:020000040000FA
:0400AC00C42200006A
:020000040000FA
:0400B000C422000066
:020000040000FA
:0400B400C422000062
:020000040000FA
:0400B800C42200005E
:020000040000FA
:0400BC00C42200005A
:020000040000FA
:0400C000C422000056
:020000040000FA
:0400C400C422000052
:020000040000FA
:0400C800C42200004E
:020000040000FA
:0400CC00C42200004A
:020000040000FA
:0400D000C422000046
:020000040000FA
:0400D400C422000042
:020000040000FA
:0400D800C42200003E
:020000040000FA
:0400DC00C42200003A
:020000040000FA
:0400E000C422000036
:020000040000FA
:0400E400C422000032
:020000040000FA
:0400E800C42200002E
:020000040000FA
:0400EC00C42200002A
:020000040000FA
:0400F000C422000026
:020000040000FA
:0400F400C422000022
:020000040000FA
:0400F800C42200001E
:020000040000FA
:0400FC00C42200001A
:020000040000FA
:04010000C422000015
:020000040000FA
:04010400C422000011
:020000040000FA
:04010800C42200000D
:020000040000FA
:04010C00C422000009
:020000040000FA
:04011000C422000005
:020000040000FA
:04011400C422000001
:020000040000FA
:04011800C4220000FD
:020000040000FA
:04011C00C4220000F9
:020000040000FA
:04012000C4220000F5
:020000040000FA
:04012400C4220000F1
:020000040000FA
:04012800C4220000ED
:020000040000FA
:04012C00C4220000E9
:020000040000FA
:04013000C4220000E5
:020000040000FA
:04013400C4220000E1
:020000040000FA
:04013800C4220000DD
:020000040000FA
:04013C00C4220000D9
:020000040000FA
:04014000C4220000D5
:020000040000FA
:04014400C4220000D1
:020000040000FA
:04014800C4220000CD
:020000040000FA
:04014C00C4220000C9
:020000040000FA
:04015000C4220000C5
:020000040000FA
:04015400C4220000C1
:020000040000FA
:04015800C4220000BD
:020000040000FA
:04015C00C4220000B9
:020000040000FA
:04016000C4220000B5
:020000040000FA
:04016400C4220000B1
:020000040000FA
:04016800C4220000AD
:020000040000FA
:04016C00C4220000A9
:020000040000FA
:04017000C4220000A5
:020000040000FA
:04017400C4220000A1
:020000040000FA
:04017800C42200009D
:020000040000FA
:04017C00C422000099
:020000040000FA
:04018000A8220000B1
:020000040000FA
:04018400C422000091
:020000040000FA
:04018800C42200008D
:020000040000FA
:04018C00C422000089
:020000040000FA
:04019000C422000085
:020000040000FA
:04019400C422000081
:020000040000FA
:04019800C42200007D
:020000040000FA
:04019C00C422000079
:020000040000FA
:04020800C42200000C
:020000040000FA
:04020C00C422000008
:020000040000FA
:04021000C422000004
:020000040000FA
:04021400C422000000
:020000040000FA
:04021800C4220000FC
:020000040000FA
:04021C00C4220000F8
:020000040000FA
:04022000C4220000F4
:020000040000FA
:04022400C4220000F0
:020000040000FA
:04022800C4220000EC
:020000040000FA
:04022C00C4220000E8
:020000040000FA
:04023000C4220000E4
:020000040000FA
:04023400C4220000E0
:020000040000FA
:04023800C4220000DC
:020000040000FA
:04023C00C4220000D8
:020000040000FA
:04024000C4220000D4
:020000040000FA
:04024400C4220000D0
:020000040000FA
:04024800C4220000CC
:020000040000FA
:04024C00C4220000C8
:020000040000FA
:04025000C4220000C4
:020000040000FA
:04025400C4220000C0
:020000040000FA
:04025800C4220000BC
:020000040000FA
:04025C00C4220000B8
:020000040000FA
:04026000C4220000B4
:020000040000FA
:04026400C4220000B0
:020000040000FA
:04026800C4220000AC
:020000040000FA
:04026C00C4220000A8
:020000040000FA
:04027000C4220000A4
:020000040000FA
:04027400C4220000A0
:020000040000FA
:04027800C42200009C
:020000040000FA
:04027C00C422000098
:020000040000FA
:04028000C422000094
:020000040000FA
:04028400C422000090
:020000040000FA
:04028800C42200008C
:020000040000FA
:04028C00C422000088
:020000040000FA
:04029000C422000084
:020000040000FA
:04029400C422000080
:020000040000FA
:04029800C42200007C
:020000040000FA
:04029C00C422000078
:020000040000FA
:0402A000C422000074
:020000040000FA
:0402A400C422000070
:020000040000FA
:0402A800C42200006C
:020000040000FA
:0402AC00C422000068
:020000040000FA
:0402B000C422000064
:020000040000FA
:0402B400C422000060
:020000040000FA
:0402B800C42200005C
:020000040000FA
:0402BC00C422000058
:020000040000FA
:0402C000C422000054
:020000040000FA
:0402C400C422000050
:020000040000FA
:0402C800C42200004C
:020000040000FA
:0402CC00C422000048
:020000040000FA
:0402D000C422000044
:020000040000FA
:0402D400C422000040
:020000040000FA
:0402D800C42200003C
:020000040000FA
:0402DC00C422000038
:020000040000FA
:0402E000C422000034
:020000040000FA
:0402E400C422000030
:020000040000FA
:0402E800C42200002C
:020000040000FA
:0402EC00C422000028
:020000040000FA
:0402F000C422000024
:020000040000FA
:0402F400C422000020
:020000040000FA
:0402F800C42200001C
:020000040000FA
:0402FC00C422000018
:020000040000FA
:04030000C422000013
:020000040000FA
:04030400C42200000F
:020000040000FA
:04030800C42200000B
:020000040000FA
:04030C00C422000007
:020000040000FA
:04031000C422000003
:020000040000FA
:04031400C4220000FF
:020000040000FA
:04031800C4220000FB
:020000040000FA
:04031C00C4220000F7
:020000040000FA
:04032000C4220000F3
:020000040000FA
:04032400C4220000EF
:020000040000FA
:04032800C4220000EB
:020000040000FA
:04032C00C4220000E7
:020000040000FA
:04033000C4220000E3
:020000040000FA
:04033400C4220000DF
:020000040000FA
:04033800C4220000DB
:020000040000FA
:04033C00C4220000D7
:020000040000FA
:04034000C4220000D3
:020000040000FA
:04034400C4220000CF
:020000040000FA
:04034800C4220000CB
:020000040000FA
:04034C00C4220000C7
:020000040000FA
:04035000C4220000C3
:020000040000FA
:04035400C4220000BF
:020000040000FA
:04035800C4220000BB
:020000040000FA
:04035C00C4220000B7
:020000040000FA
:04036000C4220000B3
:020000040000FA
:04036400C4220000AF
:020000040000FA
:04036800C4220000AB
:020000040000FA
:04036C00C4220000A7
:020000040000FA
:04037000C4220000A3
:020000040000FA
:04037400C42200009F
:020000040000FA
:04037800C42200009B
:020000040000FA
:04037C00C422000097
:020000040000FA
:04038000A8220000AF
:020000040000FA
:04038400C42200008F
:020000040000FA
:04038800C42200008B
:020000040000FA
:04038C00C422000087
:020000040000FA
:04039000C422000083
:020000040000FA
:04039400C42200007F
:020000040000FA
:04039800C42200007B
:020000040000FA
:04039C00C422000077
:020000040000FA
:10400000CF442300AE7E24000E0188000000000093
:10401000000020000000E00002003200000120004B
:104020002002880014000700590107000000E0008A
:1040300003003A0080902B000100200002003700AE
:104040000000200001002000810F700001003200FC
:1040500014000700000020000000E0000200320011
:10406000000002000000000058C202000000000032
:104070000040DA000000FE004440A9004054200047
:104080000000E0000300320000002000A0018800D2
:104090004440A800000006008A1F78008B1F7800AB
:1040A0000000060091018800800478000000EB0009
:1040B0001A003700E284440032A0B4009905BA0027
:1040C000E284440032A0B4009906BA00E2844400BD
:1040D00032A0B4000006EB00476FDE00FD07B2001F
:1040E000636CE10003003A00EBFF07000000EB0007
:1040F0000A003700606CE10004003A00005DEB004C
:104100008B05E900FDFF3E00040037006168E10017
:10411000010032000086EB000B00070019C7BA004F
:104120001905BA000E04E00003003A000A00E0009E
:10413000E0FF3A0000000600FE07B2009E01880082
:104140008A047800F5FF3700395DBA008B05E90075
:104150000C003200295DBA008B05E900080032002E
:104160000C00E00003003A00E284440032A0B400F6
:10417000F5FF370019DDBA008B05E900FAFF3A00B8
:104180008904E800E184440032A0B4000000060085
:1041900004A004000000000018A0040000000000BB
:1041A0000EA0040000000000FA9F040000000000C0
:1041B0007AA0040000000000706D04000000000000
:1041C000066E0400000000002873040000000000D8
:1041D0009472040000000000126E04000000000051
:1041E000686D040000000000DE6D040000000000A7
:1041F0006C6E0400000000003E740400000000002B
:10420000E86D040000000000E874040000000000F5
:104210000A74040000000000D273040000000000D3
:10422000DC70040000000000946D04000000000039
:10423000D472040000000000786D0400000000004B
:1042400086700400000000007CA204000000000052
:104250005296040000000000789604000000000060
:1042600020C304000000000010C304000000000090
:1042700000C3040000000000F0C2040000000000C1
:10428000E2C20400000000008EC204000000000032
:10429000D8C2040000000000D0C2040000000000EA
:1042A0006292040000000000DE91040000000000A3
:1042B000D6910400000000000A92040000000000F3
:1042C000FC91040000000000F491040000000000D4
:1042D000EA91040000000000E491040000000000E6
:1042E000A6920400000000001892040000000000E4
:1042F00052920400000000005892040000000000E8
:10430000F87B0400000000000C7C040000000000AA
:10431000FE77040000000000B677040000000000F3
:104320001E7C0400000000002A7B04000000000046
:104330008278040000000000687A04000000000099
:10434000247B040000000000A47C040000000000A6
:10435000067804000000000048820400000000000D
:104360009882040000000000E281040000000000C8
:10437000AA81040000000000C483040000000000C3
:10438000F28204000000000092830400000000009C
:10439000B28304000000000030850400000000002B
:1043A000CC820400000000006467040000000000EC
:1043B0005E670400000000006A670400000000005F
:1043C000B0670400000000008E67040000000000D9
:1043D0002C6B0400000000003068040000000000A6
:1043E000086A040000000000E26B04000000000006
:1043F0009A69040000000000C26704000000000089
:10440000ECB704000000000004B804000000000045
:10441000E4B7040000000000DEB704000000000064
:10442000C8C2040000000000C0C204000000000078
:10443000B8C2040000000000B0C204000000000088
:10444000A8C2040000000000A0C204000000000098
:104450009AC2040000000000D8B804000000000068
:104460004CB8040000000000C4B8040000000000C4
:10447000FEB80400000000001AB8040000000000AC
:10448000A8BB04000000000094BB04000000000072
:10449000BCBB04000000000084BB0400000000005E
:1044A0007CBB04000000000008BC04000000000009
:1044B000CEBC040000000000E8BC040000000000C6
:1044C000CEBB0400000000001CAE04000000000091
:1044D0000CAE04000000000048AE04000000000024
:1044E000FCAD04000000000002AE0400000000006B
:1044F000DAA504000000000004A60400000000008B
:104500006AA604000000000016A6040000000000D7
:10451000DEA60400000000002CA50400000000003E
:10452000CEA5040000000000D4A504000000000097
:104530006AA70400000000002ACC0400000000006C
:1045400026CC04000000000088C204000000000027
:104550003600F800809FBE00829FBE00849FBE0090
:10456000869FBE008C9A0200000000008EC0A90049
:104570004F03BE004F02BE004F01BE004F00BE0001
:104580003600F900004006000040DA000000FE009E
:104590000000050014002000B9043700F4FF2F00CC
:1045A000B70437000003BE00940007006011B80094
:1045B0000470A70007F0A10007F8A30017003A0055
:1045C0006509B1000D0032000D00350086022000A3
:1045D0000628E10003003500030028006000B80051
:1045E00002000500000040008180480002014900EF
:1045F000838149008502E900FAFF3A0000000600C5
:10460000F88F4200050034008100D1000080D30003
:104610008502E800FCFF3A00000006006011B800C7
:104620008000EB00000005000001BE0073000700E1
:104630000470A70003F0A10003F8A30013003A00E0
:104640006509B10010003200090035006928E10059
:1046500002003500010028000000050000004000B5
:10466000818048008502E900FCFF3A000000060056
:10467000F88F4200050035008100D1000080D30092
:104680008502E800FCFF3A00000006008000EB0015
:10469000000005004F89DE00820178009304370096
:1046A000889FBE008A9FBE000082700004027100D5
:1046B00004827100260032000004BE000200BE0029
:1046C0006011B8006B092000950220000182CF0024
:1046D0000A0039000541B1000082CF00070039000F
:1046E0000541B1000982CF00040039000541B10045
:1046F0000882CF00010039000541B1000542520097
:10470000120032000A003B008281710061016400E6
:104710008100D1000080D3008984D3000884D300B5
:104720008B05E8000442E800F7FF3A000700370075
:104730000804440089844C0000004800818048003F
:104740008B05E9000442E900F9FF3A000500070083
:104750004F05BE004F04BE00000006006011B80007
:10476000CFFF370081002000618055000B003D0025
:104770000B00200061FE2F000100E1001D0034004D
:1047800082817100610164008904D1000884D30032
:104790000000E800FAFF3A007100200061006400A8
:1047A0000300700002006000090032006104440050
:1047B000E0844C000988A500050032008B05E80064
:1047C0006808E10002003A008904D1000884D3009F
:1047D000F20F20000258E10005003D00C75DDD003A
:1047E000F907B20089807500080078000000060013
:1047F0000BF827008B00780000000500C70ADE00D8
:10480000F107B200F50FB20008003200E1CF42001C
:10481000020032000170A00024000500810F70002A
:10482000010032000408050044000500810F7000FB
:1048300002003A00140005008502E9000000400073
:1048400081C04800FCFF3B000170A000240005006F
:104850006022B800060220000000D0008180D20053
:104860000482D2008582D2000000A0000202520021
:1048700083825A00030031000202420083824A0010
:104880000000A1000603E900F3FF3A000000060063
:10489000EFFF07000400BE000000060007F8270035
:1048A000078361000638E10004003A00F7072000A2
:1048B000878361008703710001003A0003F0A200C2
:1048C000889FBE008A9FBE008C9FBE00470ADE0004
:1048D0000480A100C71ADE000580A100070028009F
:1048E0000785600087856100F70F20000720E10041
:1048F0009E0032000728E1009C003200010678008B
:104900000400E000B4003200F70720008780600058
:104910000170A0000500E000C0003200F707200091
:10492000878161000370A000050652000F003A0065
:104930000B50E1000B0032000308E10002003A00D6
:104940000200E1007E00320002045000838458001F
:10495000040031000001FD008101FD008402FD0022
:104960008A05FD006044B800210037000520E10001
:1049700005003D000001FD008101FD008402FD00F5
:104980008A05FD00050652007A60E1000500350049
:104990000170A1004722DD00848070008A807000D1
:1049A000630037006044B800EF02660007FF2F0085
:1049B000070666000500E00006003400F0831200E0
:1049C0008714DD000511DE00071BDD000601710004
:1049D0008519DE007060E1000500350009047800EB
:1049E00082047800030178008001EB007006560015
:1049F0000B50E10003003A000200400083804800B1
:104A00000400370060041400E0841C000200580019
:104A1000838058000188A300060032008100D10085
:104A20000080D3008984D3000884D3000402E80006
:104A3000270037000178A30025003A000100E000BC
:104A4000030032008186CF00698656000A003700D5
:104A50008C0020000000E00004003A00090078000B
:104A6000880478000004EB00700252008086CF00BA
:104A70000D0646000C06E9007060E10006003500F6
:104A80008000780009007800880478000004EB00BA
:104A900070065600700252000C00E0000C0034005A
:104AA0008C08DD00F00316000703DE00868070002E
:104AB0000C00DD00074BDE00060070008C4CDD00B2
:104AC0000743DE00868474000C44DD000C025200B3
:104AD0006120E1002000350061016000070028002E
:104AE00087816400F7FF2700878364000703740051
:104AF0000300E0000600320082037300040032006D
:104B00000000E800E08048000188A3000E003A00A1
:104B1000F70F20000720E1004A003D000170A100CE
:104B20004722DD00810072008A8070000000BE0014
:104B30004F06BE004F05BE004F04BE000000060039
:104B40006000B800FAFF37008100D1000080D30078
:104B50000402E800EEFF37000401780089017400C8
:104B6000A10107008A807000F1FF3700F7010700FC
:104B7000070278000001FD008101FD00F30107003C
:104B800087027800850372000778A30004003200D2
:104B90000001FD008101FD0006020700E4FF37006F
:104BA000850362000768A300080032000B50E10093
:104BB00003003200F0FF2F00F1FF2700DCFF370079
:104BC0000001FD008101FD00D9FF37000468A3004A
:104BD000D7FF3200FAFF3700F8FF27008883600014
:104BE0000B003A000000E00009003A008303640073
:104BF00082837300020032000200BE00CCFF370047
:104C00000B50E100CEFF3A000200BE00C8FF3700A3
:104C100014002000810064003EFF3700F8FF2700E9
:104C20008883610004003A000200E00002003A00BC
:104C30008C007800BEFF370015002000830164005F
:104C400039FF370001F827000000200081007500BF
:104C5000B7FF3700889FBE008A9FBE008C9FBE00B2
:104C60001B0020000202BE00058668000600280026
:104C7000060666004709DE00F20FB200820032002D
:104C80000243E80080003200C729DE00F30FB200C3
:104C90007D0032000343E8007B003200F107B200E0
:104CA0000170A000F507B2000570A000C708DD0084
:104CB0004903DE00868070004700DD00C72ADD0062
:104CC0004923DE00868272004722DD000305510081
:104CD00004035000858358000300310000004000A9
:104CE000818048000A05E9008C1F78008A9FBE0079
:104CF00004005000858058000402420085824A006A
:104D000000004000818048000005EB000004BE0068
:104D10006033B8000406BE000D48E10056003100C3
:104D2000110009004DCCD8000C01B8000D02B800EC
:104D30008481410060824A008283530003045C0046
:104D400084845C0060055D000A00E00025003A00F4
:104D5000800578000D40E1004900310088007800AE
:104D600007007800110009004D88D8000C01B80038
:104D70000D02B8008481410060824A006003110086
:104D800083835B0004045C00E0845C000900E000B5
:104D900021003A004F01BE000300E0002B0032006A
:104DA000E3016000070673008C817100010032008E
:104DB000640070004200DE004E5EDD000C007000FA
:104DC000C258DE0001E0A00083010700CF01780097
:104DD000818071004F06BE004F05BE004F04BE002B
:104DE000000006008C8343000D044C00E0844C005E
:104DF00060054D000000E9000A00E000D4FF320029
:104E00008C8343000D044C00E0844C0060054D0091
:104E10000000E900CEFF37000C0343008D834B00F8
:104E200060044C00E0844C000000E9000900E00050
:104E3000D8FF32000C0343008D834B0060044C000C
:104E4000E0844C000000E900D2FF37004200DE00A1
:104E50004E5EDD000C007000C258DE0001E0A000D4
:104E6000CF0178000300E000DAFF3200600010009C
:104E7000E0801800D7FF3700F0FF2F00AAFF3700AF
:104E8000F0FF2F00B9FF37000404BE002F01070018
:104E9000870678000004FD008104FD002B01070057
:104EA000078366000678A300030032000960A700AC
:104EB0000800BE002C0037000D78A300020032006D
:104EC0000800BE00280037000778A30026003A003B
:104ED00001F0A10009F0A1000668A3000300320060
:104EE000F1FF2700F0FF2F00BAFF37000D68A30085
:104EF000030032000800BE008C807000B5FF370050
:104F00000768A30007003A000648A3000300320028
:104F1000F1FF2700F0FF2F00AEFF37000D48A30080
:104F2000030032006000B8008C807000A9FF3700D9
:104F30000748A3000400320001F827000000200009
:104F40008C807000A3FF3700760107000004FD008D
:104F50008104FD0002057800720107000802BE000E
:104F60008A01780059FF37000160A000120220007A
:104F70000240880097FF37000100E0001200320075
:104F80000500E00010003200889FBE008A9FBE002E
:104F90008C9FBE000006EB0001F8A3000300320066
:104FA00060001000E08018000CF0A00005F8A300DD
:104FB0000300320060021200E0821A000CF0A2002E
:104FC0008005EB0041FF37006000B80002000500DB
:104FD000038368000700280007036300470ADE0018
:104FE0000480A100C71ADE000580A100F70F200091
:104FF0000720E100420032000728E10040003200B3
:10500000889FBE008A9FBE008C1F7800F107B20007
:10501000F307B2000400E000640032000170A00059
:105020000500E000680032000370A0008505420022
:10503000EB07B1000204B8000302B8008484440006
:1050400060854A00020AB800848444000A854A0048
:10505000030AB80004054500040033000804D0002A
:105060008984D2000A85D2008B05E9006158E100ED
:105070003D003500021020000901610003082000F6
:1050800089816100F7072000878364000886730028
:10509000C84CDE00C853DD00878474004855DE002C
:1050A0000300E000060032008203760004003200B4
:1050B0008904E80060054D000A88A3000C003A004E
:1050C000F70F20000758E10044003D000A70A100DE
:1050D000C75DDD000A8575008A007300090078004D
:1050E0004F0678004F05BE004F04BE0000000600CA
:1050F0000A05D1008984D3008B05E800F0FF370052
:10510000881F7800060478009000070007027800E6
:105110000001FD008101FD008C000700870278007E
:10512000850372000778A300050032000001FD002E
:105130008101FD009F0007004F0478000000060079
:10514000850372000748A30003003200F0FF2F0020
:10515000F1FF2700F8FF37000000200001F82700CA
:1051600088807000F4FF3700880178004848DD002F
:10517000808171004848DE00C850DD0001007000E9
:10518000C850DE00060478000B0178001600070006
:1051900088807000D2FF37000500E0000500320073
:1051A000170020003A0007009DFF370081037000C0
:1051B000F9FF3A00860078004F0678004F05BE00E0
:1051C0004F04BE000000050083037100F9FF3200A8
:1051D000270020002E00070094FF370001F8270069
:1051E00086807000F4FF37000100E00026003200E6
:1051F000610111007810E10023003C006022B8003A
:105200007010E10004003500800278000100780091
:105210008000EB00700151000200E0000900340042
:1052200070031100062ADD00822ADE008603DD00FD
:10523000878272000200DE00860BDD00070070002E
:105240008208DE0084817100F4FF2700048262007E
:105250008481710004002800848262006102600081
:1052600005F0A6000000060004827100070032006D
:105270000000E800E0804800000006000002BE00D8
:105280006000B800EFFF37006000B80000000600C3
:10529000889FBE000004EB006138E10016003A0070
:1052A0000100E00008003A00C800DE004800DD0010
:1052B000880020000100E00003003A00C800DE0082
:1052C0004800DD00680444008184CF00E984540074
:1052D000060034008908DD00F08314008703DE0037
:1052E000878070000900DD00090444006102140099
:1052F0004F04BE00000006000300E00008003A0072
:10530000C811DE004811DD00880020000300E00025
:1053100003003A00C811DE004811DD0068044400B3
:105320008384CF00E9845400060034008919DD002D
:10533000F08314008713DE00878171000911DD00FE
:1053400009044400E1021400E9FF370027002000AF
:1053500001F0A70017002000470BDE00F60FB20097
:10536000040032000643E8000A0032004702B3009E
:105370000000060001037800F607B2000603700083
:1053800002003A000703B300000006008702B300E2
:105390000000060001037800F607B2000603700063
:1053A000020032000770A000000006000760A000A5
:1053B000000006000478A300040032000578A30072
:1053C000030032000168A30001003A000200BE00A1
:1053D0000160A0000000060081017000270032007B
:1053E0008002EB0001F8A30003003200600010000F
:1053F000E080180015002000F4072000020242009F
:1054000020003400F703200087036000060420001A
:105410000003630002082000000161004700DE0075
:10542000C909DD0000807100C708DE000600E00049
:105430000800320087037100060032001000B0003F
:105440000180B0000188A30002003200C108DE0024
:105450000402E800F107B200F30F20000320E1008E
:1054600003003D004722DD00810072002900370063
:1054700001F827000000EB00260037006000B800AC
:1054800000000600680212007F20E10002003400E4
:105490006000B8001F0037006011B8007020E10004
:1054A0000400350080017800010078008000EB00E6
:1054B000700252000400E00009003400F003120002
:1054C0000719DD008419DE000703DD008681710005
:1054D0000400DE00070BDD00060070008408DE001B
:1054E000F7FF27008383630087037100060028000D
:1054F00003036300070032000700E00003003A00E6
:105500006101600002817300020032001000B000EF
:105510000180B0000500A6000000060001F0A00018
:10552000000006004F0ADE004709DE00F107B20066
:10553000F20FB2000B003200F207B1000170A000C0
:10554000C708DD00C901DE00838070004700DD0070
:105550000400A6000000060060001000E0801800B3
:1055600000000600810F700001003A0000000600F4
:105570008182CF000500E00010003E008082CF0055
:10558000EE8242007028E1000400390007003E006E
:10559000800078000000EB000E00370070831200DE
:1055A0008600DE000500DD000A003700708352002F
:1055B0008600DD000000EB0006003700E2825200AA
:1055C0008508DD00708312000603DE00868070000F
:1055D0000500DD007507B0000501EA000400A60023
:1055E0000000060060001000E080180000000600C7
:1055F000889FBE008A9FBE0030044200B0844A00EB
:1056000030054B0090854B006000B1000898BE004B
:105610000A90BE000440E10005C8E10006D0E100A8
:1056200007D8E10002003100680040001008E800DF
:105630004F05BE004F04BE0000000600889FBE005C
:105640008A9FBE003004BE002005BE00041854002E
:1056500005985C0006185D0007985D0011002000A9
:105660000440E10005C8E10006D0E10007D8E100F0
:10567000010039008000EB00108810004F05BE00CB
:105680004F04BE00000006001200FA00889FBE0012
:105690008A9FBE008C9FBE00E0B79F00F1B79F00BD
:1056A00082BF9F0093BF9F000605BE000404BE009A
:1056B0000000EB00D0B79F00C0B79F00B0B79F00BD
:1056C000A0B79F0090B79F00000678005FB19700D9
:1056D000CFB09700820141003FB097000200E00088
:1056E00004003D00370007007E805700C0FF070020
:1056F00003003700330007007E805700CFFF07000C
:10570000DFB697000D00E0000C0035006FB2970087
:10571000FFB297000FBB97009FBB970010002000BF
:10572000010020006011B800000272008182720046
:1057300002037300838373001B0007000C06E8005C
:1057400001042000810F5600E0FF3A000D00E00048
:1057500004003D000802BE000A03BE007E80570020
:10576000A3FF07005FA897000000E00005003A00D3
:105770001FB29700AFB297003FB39700CFB3970027
:10578000090007006FB09700FFB097000FB99700AE
:105790009FB997004F06BE004F05BE004F04BE00E4
:1057A0000080FA000000060001000700000006006B
:1057B000A4B79F00B5B79F00C6B79F00D7B79F009B
:1057C000000006004F09DE0082817100B3B79F0020
:1057D0004F01DE008180400082807000A1B79F00F1
:1057E0008FB097004F09DE000000400002007000FB
:1057F00090B79F007FA897004F01DE008180400096
:105800008280700081B79F000D0007004F3ADE00D4
:105810000000400004007000F0AF9F000800070087
:105820000402420085824A0006034B0087834B0036
:10583000DFFF07000802BE000A03BE0000000600EA
:105840002FB29700BFB297004FB39700DFB3970016
:1058500000000600881F780018002000881F7800CC
:1058600089FF07008F87E9004F04780000000600D9
:10587000801FEB0084FF07008F87E900000006000F
:10588000889FBE008A9FBE00841F78002700070003
:105890004F00780011003300F0FF2F00838F6C0061
:1058A00006003B00040565000A00A7000800370059
:1058B00009F0A6001000200008003700820F5400F5
:1058C000838F5C00030039001000200001003E00BF
:1058D0000000200009F0A7000000EA004F05BE000C
:1058E0004F04BE000000E00000000600881F7800A2
:1058F000030478000300E00007003D006000100092
:10590000E080180060011900E081190002003B00EE
:1059100001F02D000300370061FB070008F0A7002D
:1059200001F0A0004F047800000006000004BE0053
:10593000B2FB07000003BE000405BE000200BE006B
:10594000AEFB0700844F7500000006008001780060
:1059500002003700B15978000201E9000200E000BE
:10596000FCFF3A0000000600889FBE008A9FBE0030
:10597000800478000200E0005B0032000140780003
:10598000814C780082814400F1F99F00E20F5100C0
:105990005500360091449800A1449800E1F99F0019
:1059A000D1F99F00E60F51004F003600B144980036
:1059B000C1F99F00E80F51004B0036000905EA00CD
:1059C000630565000A8444000A055100C1FF2F00E9
:1059D000010565000080FB008000EB001210200034
:1059E0001310200044000700008CBE000A01440090
:1059F00060B99F0071B99F00E80F55003A0036006A
:105A00002004980031049800400498005104980044
:105A100020B99F0031B99F0040B99F0051B99F0044
:105A2000F80F5500300036006004980071049800AB
:105A3000000C9800110C9800200C9800310C980074
:105A4000400C9800510C980020B19F0031B19F008C
:105A500040B19F0051B19F0060B19F0071B19F00A4
:105A600000B99F0011B99F006401640078014100F2
:105A700002044400020555006011B8000203BE0094
:105A80000002BE000403BE006022B80000007200E5
:105A9000818072000201730083817300100037005F
:105AA000009CBE000294BE0040049800510498007F
:105AB0006204980073049800000C9800110C980080
:105AC000220C9800330C9800400C9800510C980060
:105AD000620C9800730C98000A02B1000802B00032
:105AE000FF0F5500EEFF3E00090078004F05BE0095
:105AF0004F04BE0000000600020AB900001BB900F6
:105B00000200B8008100420081004300000006004E
:020000040000FA
:105B100030300000302C0000003000003000000069
:105B2000080800000808000008000000003000001D
:105B300031320000333400003536000037380000C1
:105B40003941000042430000444500004600000087
:105B500080400000C0200000A0600000E0100000B5
:105B600090500000D0300000B0700000F00800003D
:105B700088480000C8280000A8680000E818000055
:105B800098580000D8380000B8780000F8040000E9
:105B900084440000C4240000A4640000E414000055
:105BA00094540000D4340000B4740000F40C0000DD
:105BB0008C4C0000CC2C0000AC6C0000EC1C0000F5
:105BC0009C5C0000DC3C0000BC7C0000FC0200008F
:105BD00082420000C2220000A2620000E212000025
:105BE00092520000D2320000B2720000F20A0000AD
:105BF0008A4A0000CA2A0000AA6A0000EA1A0000C5
:105C00009A5A0000DA3A0000BA7A0000FA06000058
:105C100086460000C6260000A6660000E6160000C4
:105C200096560000D6360000B6760000F60E00004C
:105C30008E4E0000CE2E0000AE6E0000EE1E000064
:105C40009E5E0000DE3E0000BE7E0000FE01000001
:105C500081410000C1210000A1610000E1110000AC
:105C600091510000D1310000B1710000F109000034
:105C700089490000C9290000A9690000E91900004C
:105C800099590000D9390000B9790000F9050000E0
:105C900085450000C5250000A5650000E51500004C
:105CA00095550000D5350000B5750000F50D0000D4
:105CB0008D4D0000CD2D0000AD6D0000ED1D0000EC
:105CC0009D5D0000DD3D0000BD7D0000FD03000086
:105CD00083430000C3230000A3630000E31300001C
:105CE00093530000D3330000B3730000F30B0000A4
:105CF0008B4B0000CB2B0000AB6B0000EB1B0000BC
:105D00009B5B0000DB3B0000BB7B0000FB0700004F
:105D100087470000C7270000A7670000E7170000BB
:105D200097570000D7370000B7770000F70F000043
:105D30008F4F0000CF2F0000AF6F0000EF1F00005B
:105D40009F5F0000DF3F0000BF7F0000FF000000FA
:105D50000052000045540000555200004E00000063
:105D6000525500004E0000004C4900005354000002
:105D70000045000058490000540000004E45000056
:105D8000570000004C450000540000004946000048
:105D900000540000484500004E000000454C000043
:105DA00053450000004700004F5400004F00000022
:105DB000474F0000535500004200000052450000CC
:105DC00054550000524E000000520000454D0000A6
:105DD00000500000524900004E54000000490000ED
:105DE0004E50000055540000004600004F52000085
:105DF000005400004F0000004E45000058540000C1
:105E000000520000454100004400000044410000F1
:105E1000544100000053000054410000525400005F
:105E20005200000053540000415200005400000092
:105E3000535400004F500000520000005354000023
:105E40004F50000000530000454E00004400000089
:105E5000524500004345000049560000450000003F
:105E6000434C00004B00000044410000540000007F
:105E70004249000054520000454100004400000027
:105E8000414400004300000041550000585000000C
:105E9000494E000000500000535500000050000023
:105EA000554C00004C5500005000000044450000D7
:105EB0004C4100005900000041550000580000000E
:105EC00046520000455100000044000055540000B7
:105ED000590000004D410000435200004F000000F7
:105EE000454E000044000000C2AE0000C6AE0000F7
:105EF000C9AE0000CEAE0000D3AE0000D8AE0000A8
:105F0000DEAE0000E5AE0000E9AE0000EFAE00003E
:105F1000F5AE0000F9AE0000FCAE000001AF0000DD
:105F200006AF00000BAF000012AF000018AF00007A
:105F30001EAF000023AF000028AF000030AF00000C
:105F400034AF000038AF000040AF000044AF0000A5
:105F50004BAF00004FAF000056AF00005CAF000039
:105F600060AF000065AF00006AAF000070AF0000D6
:105F700000000000002E0000003A00002000000099
:105F8000005E0000BCE20000613F0000DD83000015
:105F9000C29C00007E200000A3FD00001F41000005
:105FA0009DC30000217F0000FCA20000401E0000F5
:105FB0005F010000E3BD00003E60000082DC0000E5
:105FC000237D00009FC10000421C0000FEA00000D5
:105FD000E1BF00005D03000080DE00003C620000C5
:105FE000BEE00000025C0000DF810000633D0000B5
:105FF0007C220000C09E00001D430000A1FF0000A5
:1060000046180000FAA40000277900009BC5000094
:1060100084DA000038660000E5BB00005907000084
:10602000DB85000067390000BAE400000658000074
:1060300019470000A5FB000078260000C49A000064
:10604000653B0000D9870000045A0000B8E6000054
:10605000A7F900001B450000C69800007A24000044
:10606000F8A60000441A000099C70000257B000034
:106070003A64000086D800005B050000E7B9000024
:106080008CD20000306E0000EDB30000510F000014
:106090004E100000F2AC00002F71000093CD000004
:1060A000114F0000ADF30000702E0000CC920000F4
:1060B000D38D00006F310000B2EC00000E500000E4
:1060C000AFF10000134D0000CE900000722C0000D4
:1060D0006D330000D18F00000C520000B0EE0000C4
:1060E000326C00008ED00000530D0000EFB10000B4
:1060F000F0AE00004C12000091CF00002D730000A4
:10610000CA94000076280000ABF500001749000093
:1061100008560000B4EA000069370000D58B000083
:1061200057090000EBB50000366800008AD4000073
:1061300095CB000029770000F4AA00004816000063
:10614000E9B70000550B000088D60000346A000053
:106150002B75000097C900004A140000F6A8000043
:10616000742A0000C8960000154B0000A9F7000033
:10617000B6E800000A540000D78900006B35000023
:1061800012010000000200000200000000080000F0
:10619000D804000000FB0000020000000102000023
:1061A000030100000902000043000000020100009A
:1061B00000800000640900000400000000010000ED
:1061C0000202000001000000052400000010000091
:1061D0000104000024020000020500002406000063
:1061E000000100000524000001010000010700007B
:1061F00005810000030A00000040000009040000BF
:1062000001000000020A000000000000000700007A
:106210000502000002400000000000000705000029
:10622000820200004000000000040000030900009A
:10623000042A00000344000000610000006E00001A
:10624000006700000065000000720000006F0000A1
:1062500000750000007300000020000000500000E6
:1062600000720000006F000000740000006F00006A
:10627000007400000079000000700000006500005C
:1062800000730000001E00000342000000750000C3
:1062900000730000002000000050000000690000B2
:1062A0000072000000610000007400000065000042
:1062B0000020000000560000003400000020000014
:1062C0000012000003300000003000000030000029
:1062D00000300000003000000030000000300000FE
:1062E000003100000000000000000000010000007C
:1062F0000000000002000000000000000400000098
:106300000000000008000000000000001000000075
:10631000000000002000000000000000400000001D
:10632000000000008000000000000000800000006D
:10633000000000000001000000000000000200005A
:106340000000000000040000000000000008000041
:10635000000000000010000000000000002000000D
:10636000000000000040000000000000008000006D
:10637000000000000000000001000000000000001C
:106380000200000000000000040000000000000007
:1063900008000000000000001000000000000000E5
:1063A00014340000040D00008206000040030000C9
:1063B000A0010000CF0000006700000044000000C2
:1063C000220000007F00000000000000000000002C
:1063D0002C01000000000000580200000000000036
:1063E000B004000000000000600900000000000090
:1063F000C012000000000000802500000000000026
:106400004038000000000000004B000000000000C9
:1064100080700000000000000096000000000000F6
:10642000C0DA00000000000000E1000000000000F1
:1064300000C200000100000000F4000001000000A4
:1064400000E8000003000000003E000000490000DA
:10645000090000004F09000000480000090000008A
:106460004C090000001B00005B000000440000001D
:10647000430000000D0A0000280000007800000022
:10648000293E0000002E00002000000042750000A0
:106490007320000050690000726100007465000004
:1064A0002076000034000000456C000064650000A8
:1064B000726C000079500000697200006174000085
:1064C0006520000046690000726D000077610000E1
:1064D0007265000020760000382E00003020000099
:1064E00000290000002E0000203C000000000000F9
:1064F000314100004C530000014200005076000082
:106500003400000021000000001000000023000003
:10651000000F000042400000400500004102000062
:10652000000000000000000000690000D05D0000D5
:106530006DDB00005D6B0000CB5D000069D00000EA
:106540005D00000000000000181C00001D1A000083
:106550000B1E00001B0C0000160F000017000000AF
:1065600014500000010800000103000000000000BA
:1065700000200000290000009D2500000D00000003
:1065800029000000000000000000000000000000E2
:08659000000000000000000003
:020000040000FA
:10659800109781000000E8000080FB00011E230026
:1065A800E140780080C7B30080CF5000100032006F
:1065B80040C6B30080CF50000900320020C6B300A7
:1065C80080CF5000080032000040EB0072C7B300D3
:1065D80082CF500008003A00300020000500370044
:1065E80010002000030037002000200001003700C1
:1065F8000000EB000040E8000000060011C0B300F6
:10660800902E2300014878008000EB003197890024
:1066180000978100021E2300017178000000E80045
:106628000080FB00009789002097890040222B00FA
:106638004C9E0200000000000000060010412300EC
:106648001004E00005003A00C0DE2C000100200024
:1066580066BE02000000000034003700C922A9000D
:10666800CB22A80021E3A80020002000D69B02002E
:10667800000000000000EB00749B02000000000016
:10668800011B2000810F50001A0036002000200056
:10669800749B020000000000712B2000810F500045
:1066A80014003600C01B2D00010020000CBE0200A3
:1066B8000000000040222B004C9E02000000000059
:1066C800104123009080FB00000320000088B900DF
:1066D8000002B00001002300610078000000010002
:1066E80080192D000100200066BE02000000000095
:1066F8000D003700C922A900CB22A90020DC2C00FC
:106708000100200066BE020000000000800B2D0082
:10671800010020000CBE02000000000040222B00F7
:106728004C9E02000000000021E3A90000000600C2
:1067380010412300104078000004E00005003A00F2
:10674800C0DE2C000100200066BE02000000000030
:10675800140037000080FB00010320000180B9000D
:106768002002B00001002300610078000000010051
:10677800A00A2D000100200066BE020000000000F3
:10678800C922A900CB22A900800B2D0001002000FE
:106798000CBE02000000000040222B004C9E0200AC
:1067A8000000000000000600A0542D000100200099
:1067B8000CBE020000000000104123001081FB0005
:1067C800000320000091B90081022300010041006C
:1067D8006A9D02000000000020412300100078009C
:1067E800640060000400320000422D000100200017
:1067F8000CBE02000000000050222B006A9D02001F
:106808000000000000000600C21680008000610041
:10681800A0222B000100320070222B006A9D02008A
:106828000000000000000600D21680008000610011
:1068380000232B0001003200D0222B006A9D0200A9
:1068480000000000000006002097810001978100E9
:10685800810F500004003A0070C0B300009C020091
:1068680000000000080037000000E800F20F2000D8
:10687800412E23008208600060552D000100200091
:106888000CBE02000000000000000600889FBE0049
:106898008A9FBE00800578001197810000978100CB
:1068A800808F50000C003200041E23008041EB0052
:1068B800F20F2000037278000000E9000200600077
:1068C800808F5000FBFF3A00009789000041EB00E1
:1068D800011E2300827078000B00E9000080FB0095
:1068E800029781000004EB00820F50001200320072
:1068F800011E2300E14078000104E00007003A008F
:1069080003003700E44078000104E00005003A0085
:106918000000E8000084FB0007003700F30F2000A8
:10692800041E23000000E90003006000820F5000ED
:10693800F4FF3A000004EB009BFF07008B0F5400A4
:106948000E003200091E2300FA0F200069407C0067
:10695800009C0200000000000097810068F07C00A5
:106968000000E8000A006000009789000804E800B9
:106978000A046400888F5500F4FF3A0000978100EC
:106988000041EB00011E23008270780020978900E7
:106998004F05BE004F04BE0000000600889FBE00E1
:1069A8008A9FBE00189781000804E9000884FB004C
:1069B80000978100800F5400170032000005EB009B
:1069C800091E23006B2E230069407C000004E000B0
:1069D8000C003A000800E9000080FB0069407800DC
:1069E8000004E000070032000A05E8001B007800F8
:1069F800800F550003003600800DE800080078007D
:106A0800A2FF07000804E9000884FB000097810042
:106A1800880F5000ECFF3A0070C0B300009C0200E1
:106A2800000000004F05BE004F04BE000000060035
:106A3800889FBE008A9FBE00199781008904E900DB
:106A48008984FB0000978100808F54001800320071
:106A58008000EB000A1E23006B2E23006AC07C0016
:106A68000004E0000D003A000900E9000080FB0086
:106A78006A4078000004E000080032008100E80065
:106A88001B04E900810F540004003A00880D7800C7
:106A9800090078007DFF0700880078008904E90074
:106AA8008984FB0000978100890F5000EBFF3A00B2
:106AB80030978100E10F50000400320070C0B3002D
:106AC800009C0200000000001400370036FF070099
:106AD8000097810011978100810F50000900320052
:106AE800041E23008041EB00F20F2000037278009F
:106AF8000000E90002006000808F5000FBFF3A00B0
:106B0800009789000041EB00011E23008270780085
:106B180020978900602E23000008EB004F05BE0077
:106B28004F04BE00000006008000780000C3B300D8
:106B38000100E0000100320010C3B300009C020015
:106B48000000000000000600889FBE008A9FBE006B
:106B580021978100009781008004EB00808F50000E
:106B68000F0032000A1E23000BC2B3000104E80024
:106B78006A407C0000F578000004E00001003A005B
:106B88000B407800009C0200000000008904E80027
:106B98008880FB0000978100810F5000F3FF3A00C6
:106BA8000000E9000080FB000097890030232B00DB
:106BB8006A9D02000000000009007800E29C0200C3
:106BC8000000000060232B006A9D02000000000006
:106BD8004F05BE004F04BE0000000600209781004C
:106BE80011978100810F500004003A0070C0B30073
:106BF800009C020000000000180037000197810087
:106C0800810F50000C003A000000E9000080FB00F2
:106C1800009789000041EB00011E23008270780074
:106C280020978900A0552D00010020000CBE02000D
:106C38000000000009003700E0542D00010020008A
:106C48000CBE020000000000402E23001001E900E5
:106C5800F10F200001086100BBFF070000000600DB
:106C68002197810010978100808F500004003A001E
:106C780070C0B300009C0200000000000100370053
:106C8800B1FF070000000600889FBE002197810021
:106C980010978100808F500003003A0070C0B30045
:106CA800009C020000000000492E23001897810074
:106CB800190414000884FB0030232B006A9D02008D
:106CC8000000000008007800E29C020000000000BC
:106CD80060232B006A9D02000000000010978100CD
:106CE800800C78004F04BE0000000600889FBE009C
:106CF8002197810000978100808F500003003A009F
:106D080070C0B300009C020000000000492E230060
:106D180008978100190454000884FB0030232B00D5
:106D28006A9D02000000000008007800E29C020052
:106D38000000000080232B006A9D02000000000074
:106D480000978100800C78004F04BE000000060008
:106D5800889FBE008A9FBE008C9FBE008E1F780051
:106D6800804678000A9781008A00E8008180FB004D
:106D780010978100808F50004B003200FFCF5600E3
:106D880049003600E0C7B30080CF560046003E00F9
:106D980028978100880F55000D003A000D407800B3
:106DA800009C02000000000000978100011E2300E3
:106DB8008D7078000000E8000080FB0000978900D3
:106DC8000041EB0082707800209789003900370075
:106DD80030232B006A9D02000000000008005500C7
:106DE800FB0F20000B006000E29C02000000000086
:106DF80080232B006A9D0200000000000A97810092
:106E0800402E23001000E9008B0560008A8F550092
:106E1800160032000B1E230028552D000900200003
:106E2800FC0F20004E2E23000A804500EB407D0019
:106E3800114098006B407D000004E000050032001E
:106E4800009C0200000000000800BE000CBE02000A
:106E5800000000000A05E9000C0565001E00E900B5
:106E68000C0060008A0F5000EFFF3A000D407800D8
:106E7800009C020000000000412E23001100780051
:106E8800021E23000D7178000001E800F00F2000B9
:106E980080086100019781008100E800008060009F
:106EA800009789000300370070C0B300009C0200FF
:106EB800000000004F0778004F06BE004F05BE00D7
:106EC8004F04BE0000000600802E230041C0B3001E
:106ED80090CF100005003600E8BD02000000000059
:106EE800802E23000048EB00100037002097810017
:106EF80011978100810F5000090032000000E9005D
:106F0800F20F2000412E230082086000E0542D007B
:106F1800010020000CBE0200000000000300370042
:106F280070C0B300009C02000000000000000600D2
:106F3800189F020000000000B1C5B300814F500047
:106F480029003A00189F02000000000011C4B30095
:106F5800814F50001300320007003E0011C3B300F8
:106F6800814F50001300320041C3B300814F5000DD
:106F78001D003A001600370031C4B300814F50009D
:106F8800060032000900390041C4B300814F5000A7
:106F980015003A00CCFF0700130037002AFE07004F
:106FA800110037007DFE07000F003700A0FE070024
:106FB8000D003700189F020000000000E1C7B30071
:106FC800814F500008003A002FFF070006003700E5
:106FD800189F020000000000E1C7B300814F500075
:106FE80001003A0041FF070000000600889FBE002C
:106FF80020382D000100200066BE020000000000BD
:1070080060682C000100200066BE0200000000003D
:10701800C0B32C00010020000CBE020000000000DC
:10702800104123009080FB00000320000088B90075
:107038004002B00001002300610078000000010058
:10704800A0382D00010020000CBE02000000000046
:1070580010002000ECFD070000102000EAFD0700EA
:1070680000022000E8FD070000012000E6FD0700FF
:1070780080002000E4FD070040002000E2FD07003A
:1070880020002000E0FD070040222B004C9E02005B
:107098000000000060522D00010020000CBE02001C
:1070A8000000000021E3A80020002000749B0200DB
:1070B80000000000F89C020000000000085C2D00A1
:1070C800090020000800BE000CBE020000000000FD
:1070D80090C0B300009C0200000000000000EB001C
:1070E800749B020000000000F89C020000000000F1
:1070F8000800BE000CBE02000000000090C0B300F3
:10710800009C02000000000050002000749B020058
:1071180000000000F89C0200000000000800BE000B
:107128000CBE02000000000090C0B300009C0200EA
:107138000000000010002000749B02000000000006
:10714800F89C0200000000000800BE000CBE02000F
:107158000000000090C0B300009C02000000000086
:1071680021E3A90010002000AFFD07000010200057
:10717800ADFD070000022000ABFD07000001200064
:10718800A9FD070080002000A7FD0700400020009F
:10719800A5FD070020002000A3FD070040222B00CA
:1071A8004C9E0200000000004F04BE0000000600D4
:1071B80020492D00010020000CBE02000000000044
:1071C800A17F250010002000B49B020000000000F1
:1071D8000E9C02000000000000C2B300009C0200E8
:1071E80000000000604F2D00010020000CBE0200CE
:1071F80000000000C17F250010002000B49B0200A1
:10720800000000000E9C020000000000A0442D00B9
:10721800010020000CBE020000000000E17F2500F4
:1072280010002000B49B0200000000000E9C020029
:107238000000000040222B004C9E020000000000CD
:1072480020282D000100200066BE0200000000007A
:1072580066FF0700CB22AB0005003200C01B2D00E3
:10726800010020000CBE02000000000004003700EE
:10727800800B2D00010020000CBE02000000000061
:10728800C0C2B300009C02000000000000C2B300AE
:10729800009C020000000000E282AB000500320002
:1072A80080042D00010020000CBE02000000000038
:1072B8000400370080F92C00010020000CBE0200F9
:1072C80000000000C0C2B300009C020000000000E3
:1072D80000C2B300009C020000000000E8A2AB005E
:1072E80004003A00C04E2D00010020000CBE020030
:1072F80000000000E882AB0004003A00203F2D00A7
:10730800010020000CBE0200000000000042230023
:10731800104078007040600005003200E0C32C0087
:107328000100200066BE02000000000004003700D3
:1073380020D12C000100200066BE020000000000E1
:1073480000422300104078006840600005003A00C1
:1073580000E02C00010020000CBE0200000000002C
:107368000400370040E12C00010020000CBE0200A0
:1073780000000000C0C2B300009C02000000000032
:1073880000C2B300009C020000000000C0E32C0013
:10739800010020000CBE020000000000F0412300A4
:1073A80010407800D49C02000000000040222B000E
:1073B8004C9E0200000000000042230010407800AC
:1073C800634060000080FB00E20F50000E003200B6
:1073D800E30F500011003200E10F500005003200A9
:1073E80080F72C000100200066BE020000000000AB
:1073F8000E00370080F82C000100200066BE020055
:10740800000000000900370080FE2C000100200069
:1074180066BE0200000000000400370080FF2C0058
:107428000100200066BE0200000000001041230099
:107438009080FB00000320000088B9006002B000C3
:1074480001002300610078000000010020282D00C1
:107458000100200066BE02000000000000000600D7
:10746800889FBE008A1F7800139781000380FB0065
:10747800011E230061407800F1CCB3008140400038
:10748800E8CF50001A003E000080FB000003B10066
:107498008300E8008180FB00021E230062C178009F
:1074A80004CDB3000442410011002000E94F52000E
:1074B80076003E00F80F2000071E230006CDB3001B
:1074C8006A02B9000280FB00040040000003B1001A
:1074D8008100E800038140000801610067417900EC
:1074E80006424100E94F5200F5FF360067003700B9
:1074F80001C3B300814F500060003A000300E80068
:107508000080FB00011E23006141780020C6B30003
:10751800804F51000B003A000380E8000080FB0018
:10752800011E23006141780004CDB30004424100EC
:107538000000EB0021002000E14F5200050036005A
:107548005200370020C4B300804F510010003A00A9
:10755800F1FF3700F70F2000061E230005CDB3000A
:10756800000040000281FB00020040000003B1005F
:107578008100E8000381400007016100664179004D
:1075880005424100E14F5200F5FF36003F00370049
:1075980080C7B300804F51000A00320080C5B30095
:1075A800804F51001E003A00090037004400DD00FA
:1075B8000003B1000281FB00020040008100E800E6
:1075C8000A0037000000EB0021002000020037000D
:1075D8000000EB0021002000F80F2000061E230009
:1075E80007CDB300F9CBB300FAC9B300038240005A
:1075F8000802620066417A0087424100E9CF5200E2
:10760800EAFF360089424100E5CF520026003600E5
:107618008A424100E5CF5200230036001B003700A4
:1076280004CDB300044241000000EB00110020002B
:10763800E94F520015003E000280FB000003B10034
:10764800F80F2000071E230006CDB3006A02B90018
:107658000280FB00040040000003B1008100E80044
:10766800038140000801610067417900064241003A
:10767800E94F5200F5FF36000400370000422300AE
:107688001074A0000000EB0004003700129781007E
:10769800828040008180FB00119789004F057800A7
:1076A8004F04BE00000006000254A00002737A00D6
:1076B8004400DD007005B1000281FB0002004000BB
:1076C800BEFF3700881F7800119781000100E8008D
:1076D8000080FB00021E2300E24178001000200019
:1076E800A2C3B30082CF510009003A008180E800AC
:1076F800F80F2000888060001197890058FF070064
:10770800119781008100E9000884600018978900BA
:107718004F04780000000600881F78001197810048
:107728000100E8000080FB00021E2300E24178000F
:107738000000EB00B2C3B30082CF510009003A0049
:107748008180E800F80F2000888060001197890088
:1077580043FF0700119781008100E9000884600059
:10776800189789004F0478000000060010978100E0
:10777800011E23006141780001C2B300814F51000E
:1077880009003A00F40F2000031E2300014178008D
:107798000000E80004006000E340780082CF500059
:1077A800FBFF32001097890000000600889FBE008A
:1077B8008A1F780000447800109781000000E800D4
:1077C8000080FB0010978900E8FF070024FF0700EE
:1077D800000578000804E00006003200F0412300AC
:1077E800904078000A0078009C9B0200000000008E
:1077F800000578000A4078003C9C02000000000068
:10780800E8532D00090020000800BE000CBE02004D
:10781800000000000A407800D49C0200000000002C
:107828000800BE000CBE0200000000000A407800FC
:10783800369D02000000000040222B004C9E0200F2
:10784800000000004F0578004F04BE00000006004D
:107858001000FA00889FBE008A9FBE008C9FBE0061
:10786800500798006107980072079800430798002E
:10787800A8552D00090020008AE22C000B002000EA
:10788800A0232B006A9D0200000000005E0090000B
:107898000000E00004003D00E0232B006A9D020088
:1078A80000000000030037002E489000D49C02001E
:1078B8000000000000242B006A9D02000000000068
:1078C8008000EB003107980081067800189F0200BD
:1078D8000000000000467800ED4F560046003200D8
:1078E80005003E00E84F56000A003200EA4F5600F5
:1078F8002C003A0040003700D0C2B300804F560039
:107908001800320080C7B300804F560025003A00A7
:10791800200037000D00E000050032008D06E90068
:107928000800BE000CBE020000000000E7FF3700A0
:107938003E0090000000E000060032000800BE0093
:107948000CBE0200000000008000EB003107980028
:10795800DEFF370070C0B300009C0200000000008A
:10796800DAFF37000D00E00006003A00D0C2B3008D
:10797800009C020000000000100020003007980062
:10798800D2FF370070C0B300009C02000000000066
:10799800CEFF3700CE0090000100E0001200320058
:1079A8003500370001CDB30001404600E94F5000D3
:1079B8000D003E00E38F56000500340070C0B30090
:1079C800009C0200000000004D002000BFFF3700AF
:1079D8000C407800009C0200000000000CF77E00BC
:1079E8008D06E800B9FF370070C0B300009C0200A4
:1079F80000000000B5FF370040222B004C9E02001B
:107A0800000000000D00E0001F0032000D00E9003A
:107A18000001EB00080033000E0078008D064700D7
:107A28006A11B900B080FB000103B1000281400077
:107A38008D0F5000FAFF3A006E009000820F500040
:107A480009003C00FE009000828F500006003500BF
:107A58003E0090000000E0000A0032000201EA0047
:107A680052079800080037000A00BE0066BE0200F0
:107A78000000000082FF37008080EB00510798006B
:107A880001003700520798005E0090004F06BE00C4
:107A98004F05BE004F04BE000080FA00000006003B
:107AA8001E00FA00889FBE008A9FBE008C9FBE0001
:107AB800109781000004E9000884FB001D002000E5
:107AC800880F500028003200091E2300FB0F2000F9
:107AD80069407C000004E0001E003A000806E80047
:107AE8000B06660069407E000004E00019003200C1
:107AF8000D407800D49C02000000000030242B00C8
:107B08006A9D02000000000069407E000004E00059
:107B1800080032000885E800009C02000000000010
:107B28000B006500694078000A05E8000004E000E1
:107B3800F9FF3A000D8046000C3778008D06E80002
:107B4800EF8F56000800320040222B004C9E0200A6
:107B5800000000000804E9000B046400109781008D
:107B6800800F5400DAFF3A0040222B004C9E02009E
:107B780000000000E0432D000100200066BE020066
:107B880000000000130020000D0178008300780039
:107B98000000EB002EFF07008000E800E18F500096
:107BA8000900360000004000EE0278000580FB0066
:107BB800011E2300E14078000000EB000104E00012
:107BC80006003A001200370040222B004C9E0200AB
:107BD80000000000100020001C00370006978100FC
:107BE8000000EB00F30F2000021E230006024000F5
:107BF8000302620001717A000000E800850040007D
:107C080083806000E2C078000104E000F7FF3A00DA
:107C1800029781000201E900F10F200001016100D3
:107C2800129789000281E80000004100010060000D
:107C3800009789000000E900810060000041EB0026
:107C4800001E230002F078000000EB004F06BE0083
:107C58004F05BE004F04BE000080FA000000060079
:107C6800889FBE008A9FBE00109781000000E80030
:107C78000080FB0010978900BCFE0700F8FD070094
:107C88000000E00045003A000004EB000903200072
:107C98000A0023000840E800D49C0200000000000D
:107CA80030242B006A9D02000000000009C0B900C2
:107CB8008002B0000A0040004C9E02000000000054
:107CC8000804E800EA0F5400F2FF3A0080FC2C0098
:107CD8000100200066BE02000000000000422300F0
:107CE8001074A10013002000A20020008300780077
:107CF80003007800D6FE07000004E9000000E80051
:107D0800E10F500005003E0080272D0001002000F3
:107D180066BE0200000000003F0037001941230042
:107D28001980FB000A0320000A80B9002002B00075
:107D38000B0023006B00780000000100169B020076
:107D480000000000884C78000880FB000A80B90019
:107D58007E0540006B007D0000000100A00A2D0098
:107D68000100200066BE0200000000000800E000DC
:107D780005003200CB02A80020812C000100200061
:107D880066BE020000000000204F2D000100200008
:107D980066BE0200000000001F0037000004E90072
:107DA800E90F540018003C00194123001980FB001A
:107DB8000A0320000A80B9002002B0000B0023004B
:107DC8006B00780000000100169B02000000000014
:107DD800884C78000880FB000A80B9007E054000C6
:107DE8006B007D00000001000800E0000100320087
:107DF800CB02A800204F2D000100200066BE020023
:107E0800000000000400370080FD2C000100200065
:107E180066BE020000000000009781000000E90033
:107E28000080FB00109789004F05BE004F04BE007C
:107E380000000600881F7800109781000000E80005
:107E48000080FB001097890048FE070084FD0700AA
:107E58008000E900E98F500003003E00F140230054
:107E68008048E9000D003700004223001074A1008B
:107E780060442C000100200066BE020000000000E3
:107E88008001EB00A20020001100200090002000DB
:107E98006FFE0700F14023008048E9000004EB0072
:107EA800F040230091C0B30090CF100011003A00B9
:107EB8002EFE07006AFD0700000478000800E000B5
:107EC8000C003A00004223001074A10080022D002B
:107ED8000100200066BE0200000000008001EB00E7
:107EE800F2FF2700830078002002200058FE0700D8
:107EF8000004780040062D000100200066BE020044
:107F08000000000040142D000100200066BE0200A1
:107F180000000000849F020000000000F0402300E1
:107F280091C0B30090CF100003003A000800780019
:107F3800909F020000000000829F020000000000E5
:107F480008C2B300189F020000000000884F5000CC
:107F5800FCFF3A004F0478000000060010978100EB
:107F68000000E8000080FB0010978900FFFD070073
:107F78003BFD07008000E900E38F500003003E004E
:107F8800014123008048E9000D003700004223002A
:107F98001074A10060C52C000100200066BE02001C
:107FA800000000008001EB004200200011002000CA
:107FB8000100780026FE0700014123008048E900FF
:107FC80060052D000100200066BE020000000000D0
:107FD800000006001A00FA00889FBE008A9FBE00B3
:107FE8008C9FBE000005BE00220F9800340F980039
:107FF800450F980073079800A8552D000900200028
:108008008CE22C000D0020000A0F98001B0F98002E
:10801800A0232B006A9D0200000000000E0A9000B9
:108028009E0A9000E00F5200E08F5A0004003D00C5
:10803800E0232B006A9D02000000000004003700C6
:108048000E0890009E089000EE9C020000000000C0
:1080580000242B006A9D0200000000008002EB0053
:108068006507980085057800189F02000000000049
:1080780000457800ED4F55004600320005003E00EF
:10808800E84F55000A003200EA4F55002C003A002C
:1080980040003700D0C2B300804F550018003200AE
:1080A80080C7B300804F550025003A0020003700F4
:1080B8000B00E000050032008B05E9000800BE0057
:1080C8000CBE020000000000E7FF37006E009000C1
:1080D8000000E000060032000800BE000CBE0200EE
:1080E800000000008000EB0061079800DEFF370009
:1080F80070C0B300009C020000000000DAFF3700E7
:108108000B00E00006003A00D0C2B300009C020059
:10811800000000001200200062079800D2FF37001C
:1081280070C0B300009C020000000000CEFF3700C2
:10813800FE0190000300E000120032003E0037000C
:1081480004CDB30004404500E94F50000D003E0047
:10815800E98F55000500340070C0B300009C020090
:1081680000000000AB002000BFFF37000A40780085
:10817800009C0200000000000AF77D008B05E80063
:10818800B9FF370070C0B300009C02000000000077
:10819800B5FF370040222B004C9E02000000000073
:1081A8000B00E000290032000B01E9006000B80074
:1081B8000D0033000E0178008B0147006000B80005
:1081C8006A0AB9006A00B800810042003282FB00E6
:1081D8000403B100CFA2DE000000420081804A0003
:1081E800830F5100F6FF3A002E0A90006121B90072
:1081F800800F5100818F59000B003C003E09900010
:10820800CE099000800F5100818F5900060035007B
:10821800EE0190000300E0000A0032006005100043
:10822800E08518000B0037000C00BE0066BE020097
:108238000000000076FF37000085EB008085EB002A
:10824800040037000005BE00020037000E0D900044
:108258009E0D90000A00BE004F06BE004F05BE00EE
:108268004F04BE000080FA0000000600889FBE0090
:108278008A9FBE0060242B004C9E02000000000074
:1082880040252B006A9D020000000000B0C5B30025
:10829800009C020000000000190020000004EB0010
:1082A8000A0320000B002300020037000804E8003E
:1082B8008904E8000800E0004700320000C2B3006B
:1082C800009C0200000000000AC0B9008002B00053
:1082D8000B0040006A9D020000000000E98F540076
:1082E800F2FF3600D0C5B300009C02000000000079
:1082F80040222B004C9E02000000000040442D004C
:10830800010020000CBE02000000000050A0810007
:108318000E9C02000000000040472D0001002000D4
:108328000CBE020000000000C840230018007800BE
:108338000E9C020000000000C0182D000100200063
:108348000CBE02000000000018007800E30F500087
:1083580009003200E40F50000C003200E10F500019
:108368000F003A00605B2D00010020000CBE0200E7
:10837800000000000E003700805B2D000100200087
:108388000CBE02000000000009003700A05B2D00B1
:10839800010020000CBE02000000000004003700AD
:1083A80060542D00010020000CBE020000000000F7
:1083B80010272B004C9E020000000000C0CF2C00AC
:1083C8000100200066BE0200000000004F05BE004C
:1083D8004F04BE00000006000AC0B9008002B000C9
:1083E8000B0040006A9D020000000000AFFF37004C
:1083F800104123001004E00007003A00C0DE2C0002
:108408000100200066BE02000000000000422300B8
:108418001074A0007100370000422300104078005B
:108428007040600007003A00E0C62C000100200000
:1084380066BE020000000000004223001074A00085
:1084480066003700E8A2A800EA82A900E882A8002E
:1084580020002000D69B02000000000021E3A800B5
:1084680050002000749B02000000000021E3A900D6
:1084780001102000810F500007003600C0AE2C000C
:108488000100200066BE0200000000000042230038
:108498001074A00051003700109781000000E80018
:1084A8000080FB0010978900B0FC0700ECFB070078
:1084B800014223001104E0000B003D000100780098
:1084C8001074A100A0642C000100200066BE020008
:1084D800000000008001EB003200200011002000A5
:1084E80001007800DAFC0700E20F500010003200AB
:1084F800E30F50001E003200E10F50002C003A003C
:10850800E8A2A800EA82A900E882A800A0EE2C0050
:10851800010020000CBE02000000000060482D0091
:108528000100200066BE0200000000002B0037009A
:10853800E8A2A800EA82A900E882A900A0502D00BC
:10854800010020000CBE020000000000A0EE2C007C
:10855800010020000CBE02000000000000482D00B1
:108568000100200066BE0200000000001B0037006A
:10857800E882A800EAA2A900E8A2A900C05A2D0032
:10858800010020000CBE020000000000A0EE2C003C
:10859800010020000CBE02000000000000482D0071
:1085A8000100200066BE0200000000000B0037003A
:1085B800E8A2A800EA82A900E882A800A0EE2C00A0
:1085C800010020000CBE02000000000060482D00E1
:1085D8000100200066BE0200000000000000060046
:1085E8001600FA00889FBE008A9FBE008C9FBE00BE
:1085F8000000EB00109789000097890020978900F8
:108608001141230080487800014223001174A10021
:10861800A12E23009F0009008058EB00509C890080
:108628000041EB000257980080017800230F980062
:10863800130F98000A422D000B002000204F2D0038
:108648000100200050079800610798008CFB2C005F
:108658000D00200082FA2C00030020003207980049
:10866800430798001A0798002B0798001041230029
:108678001081FB00000320000091B9008102230053
:10868800010041006A9D0200000000002041230013
:108698001000780064006000040032001E009000A2
:1086A800AE0090000CBE02000000000050222B001B
:1086B8006A9D020000000000A92E2300FB0037007D
:1086C800509C81000000E000430032000000E900F7
:1086D800509C8900C500DD00E9C078000104E00075
:1086E800140032000004EB0002978100031E2300EF
:1086F800817179004500DD0008004000694078007C
:10870800009C0200000000000804E80000978100B7
:108718000000E8000080FB0000978900509C810061
:10872800C500DD0088804000E9C078000104E00051
:10873800EDFF3A000000EB00509C8900260037004E
:10874800014223009140780064C060002400320098
:10875800124123001280FB000880B9007A00400013
:108768006A007800000001000004E0001C003200EC
:10877800134123001380FB000880B9008002B00079
:108788000A0040006A9D02000000000050222B00F1
:108798006A9D0200000000001B978100009781007D
:1087A800808F55000E0032000D003200011E23009C
:1087B80061C07D00009C020000000000F20F200054
:1087C800828565008B05E800009781008B0F5000BB
:1087D80003003200F5FF3700080320000A002300D9
:1087E800049F0200000000000004E000D4FF3200F3
:1087F8008A9F0200000000000004E000030032002D
:108808008E9F020000000000A8003700189F020099
:10881800000000000081FB008001EB00F107200050
:10882800810F5100E08F59009F003E000260010057
:10883800930037008C003700830037009A00370018
:108848007D0037008A003700810037009600370026
:108858007700370094003700870037009200370010
:1088680091003700840037007D0037008E00370004
:10887800790037008C0037008B0037008A003700FA
:1088880089003700880037008700370086003700E6
:108898008500370084003700830037006800370000
:1088A80081003700800037007F0037007E003700E6
:1088B8007D0037007C0037007B0037007A003700E6
:1088C80079003700780037007700370076003700E6
:1088D80075003700740037007300370072003700E6
:1088E80071003700700037006F0037006E003700E6
:1088F8006D0037006C0037006B0037006A003700E6
:1089080069003700680037006700370066003700E5
:1089180065003700640037006300370062003700E5
:1089280061003700600037005F0037005E003700E5
:108938005D0037005C0037005B0037005A003700E5
:1089480059003700580037005700370056003700E5
:1089580055003700540037005300370052003700E5
:1089680051003700500037004F0037004E003700E5
:108978004D0037004C0037004B0037004A003700E5
:1089880049003700480037004700370046003700E5
:1089980045003700440037004300370042003700E5
:1089A80041003700400037003F0037003E003700E5
:1089B8003D0037003C0037003B0037003A003700E5
:1089C80039003700380037003700370036003700E5
:1089D80035003700340037003300370032003700E5
:1089E80031003700300037002F0037002E003700E5
:1089F8002D0037002C0037002B0037002A003700E5
:108A080029003700280037002700370026003700E4
:108A180025003700240037002300370022003700E4
:108A280021003700200037001F0037000200370000
:108A38006AF807001D00370089F807001B00370097
:108A48003BF90700190037001FF907001700370026
:108A58007DF7070015003700D0F70700130037002F
:108A6800F3F707001100370087F807000F003700F9
:108A78009EF807000D003700E0F607000B003700EE
:108A8800812E23001140E80080487800F44F500000
:108A980006003A008662020000000000802E2300D3
:108AA8000048EB0058013700A9F80700922E230070
:108AB8001204E00002FF320003978100130F9800B0
:108AC80010978100200F98000040EB00820078008A
:108AD80080487800014223001174A100004F7800FB
:108AE8002041230010007800640060008040EB0003
:108AF80001579800070432004458020000000000A3
:108B08005E009000EE00900066BE020000000000CB
:108B180010C0B300004F78000041EB0002579800E6
:108B2800FC03370010978100011E23006141780083
:108B38000281FB008001EB00E1072000810F51005A
:108B4800E08F5900CE033E0002600100CE033700DB
:108B5800CB033700CA033700C9033700C8033700FF
:108B6800C7033700C6033700C5033700C4033700FF
:108B7800C3033700C4033700C1033700C0033700FD
:108B8800C1033700BE033700BD033700BC033700FD
:108B9800BB033700BA033700B9033700B8033700FF
:108BA800B7033700B6033700B5033700B4033700FF
:108BB800B3033700B2033700B1033700B0033700FF
:108BC800AF033700AE033700AD033700AE033700FD
:108BD8008F03370010023700070137000C013700F8
:108BE8005E0137004C013700A5033700E701370065
:108BF800A3033700A2033700A1033700A2033700FD
:108C0800410337005A033700250337006502370050
:108C180064023700630237006202370061023700DE
:108C2800600237005F0237005E0237005D023700DE
:108C38005C02370092033700910337006B0137005D
:108C4800DA0037008E033700470037000A01370083
:108C5800060137008A0337006A0037002B01370006
:108C680087033700860337008503370084033700FE
:108C78008303370082033700760037007D00370012
:108C88007F0337007E0337007D0337009F003700DE
:108C98007B0337007A033700440137007803370035
:108CA800770337007603370006013700740337006F
:108CB80073033700720337001702370005033700C4
:108CC80026023700380337001C0337006C033700CF
:108CD800E30037002F00370042003700FD0037005F
:108CE800B000370031003700330037001600370076
:108CF80020003700620337004C0037006700370058
:108D0800220037005E033700240037006D0037006B
:108D18005B03370091023700210137005803370001
:108D2800570337001F003700E800370054033700A7
:108D38005303370052033700FF0137009E00370006
:108D48000F0237009F00370055FB07000000E000C6
:108D58004D033A0012978100220F98000397810073
:108D6800130F98004803370070BE0200000000008F
:108D7800450337003DFD0700104123001004E000C3
:108D8800410332000AF907003F033700B4FB07002C
:108D98003D03370027FC07003B0337006FFC070043
:108DA8003903370091F80700370337006E8902004E
:108DB8000000000034033700104123001004E000D5
:108DC80005003A00C0DE2C000100200066BE02004B
:108DD800000000002C0337005A8802000000000041
:108DE8002903370000422300C1CFB30010C8600038
:108DF80080F72C000100200066BE02000000000081
:108E08002103370000422300C1CFB30090C06000A7
:108E18000104A0000148780080F82C00010020001F
:108E280066BE02000000000017033700004223005E
:108E3800C1CFB30090C060000114A00001487800C1
:108E480080FE2C000100200066BE02000000000029
:108E58000D033700004223009040780063C870007B
:108E680080FF2C000100200066BE02000000000008
:108E780005033700004223001034A00040E12C0015
:108E8800010020000CBE02000000000040222B0060
:108E98004C9E020000000000FB0237000042230045
:108EA8001034A10000E02C00010020000CBE0200DC
:108EB8000000000040222B004C9E02000000000031
:108EC800F1023700104123001004E00005003A00C9
:108ED800C0DE2C000100200066BE02000000000079
:108EE800E9023700E282A900E082A90080F92C009B
:108EF800010020000CBE02000000000040222B00F0
:108F08004C9E020000000000DF02370010412300E1
:108F18001004E00005003A00C0DE2C00010020002B
:108F280066BE020000000000D7023700004223009E
:108F3800104078007040600004003A00E0C62C0041
:108F48000100200066BE020000000000E082A800C8
:108F5800E282A90080042D00010020000CBE02005E
:108F68000000000040222B004C9E02000000000080
:108F780021E3A80050002000749B020000000000BC
:108F8800F1042000810F500004003E00E0C92C00CD
:108F98000100200066BE02000000000021E3A900D5
:108FA800B902370012FD0700B70237000040EB0096
:108FB800FEF90700B402370010C0B300FBF9070040
:108FC800B1023700104123001004E00005003A0008
:108FD80011C0B3000140780072A90200000000002F
:108FE800A902370080ED2C000100200066BE0200B7
:108FF80000000000A4023700E0582D000100200006
:1090080066BE02000000000098FC07009E023700C0
:10901800FCBE0200000000000004E0009A023200DA
:1090280011C0B300A07F24000148780020362D002D
:109038000100200066BE020000000000400620007B
